:100000000C9434000C945D000C945D000C945D0025
:100010000C945D000C945D000C9439020C945D000E
:100020000C945D000C945D000C945D000C947809B8
:100030000C945D000C945D000C94D7080C945D004A
:100040000C945D000C945D000C945D000C945D00BC
:100050000C945D000C945D000C945D000C94980968
:100060000C945D000C945D0011241FBECFEFD8E00E
:10007000DEBFCDBF14BE0FB6F894A8958091600086
:10008000886180936000109260000FBE11E0A0E0D4
:10009000B1E0ECE2F0E202C005900D92AC30B107A5
:1000A000D9F721E0ACE0B1E001C01D92A037B20762
:1000B000E1F70E94CD0C0C9402100C94000085E135
:1000C0000E9454098CE291E00E94A50380E00E9406
:1000D00054098CE291E00E94A50385E10E94540935
:1000E0008CE291E00E94A50380E00E9454098CE21A
:1000F00091E00E94A50380910C0190910D0102975F
:1001000069F082E090E090930D0180930C010E94D1
:10011000B90360E0809149010C94B40308950F93F2
:100120001F93CF93DF93C0E0D0E000E010E00E9487
:1001300019049C012F3F3207C9F0020F131F2196AB
:1001400085E090E00E94A503CA30D10581F7043C08
:1001500089E0180774F10E3619416CF484E690E0DA
:10016000DF91CF911F910F910C94A50385E090E052
:100170000E94A503DCCF80910C0190910D010297A4
:1001800069F082E090E090930D0180930C010E9451
:10019000B90360E0809149010E94B40381E00E94AC
:1001A000540984E690E0DF91CF911F910F910C9458
:1001B000A50380910C0190910D01039769F083E0F4
:1001C00090E090930D0180930C010E94B90360911F
:1001D000480180E00E94B40380E10E94540984E653
:1001E00090E0DF91CF911F910F910C94A5030F9395
:1001F0001F93CF93DF9300E010E0C0E0D0E00E94B7
:1002000019049C012F3F3207A1F0020F131F219602
:1002100085E090E00E94A503CA30D10581F7C801AE
:10022000BE010E94D80CCB01DF91CF911F910F919D
:10023000089585E090E00E94A503E1CF9C018091A4
:100240000C0190910D018217930781F030930D01FD
:1002500020930C012115310551F02130310591F029
:1002600022303105B9F02330310529F0089560E0DE
:1002700080E00C94B4030E94B9036091480180E0CF
:100280000C94B4030E94B903609146018091470128
:100290000C94B4030E94B90360E0809149010C946E
:1002A000B403089580E090E008950895BF92CF923E
:1002B000DF92EF92FF920F931F93CF93DF93F89407
:1002C00014B817B81AB815B818B81BB8529A5A9A71
:1002D00014BC85E085BD8FEF87BD82E080936E0002
:1002E00010928000109281002FE83BE0309389004B
:1002F0002093880080936F005398239891EA9093FD
:10030000B0008093B1001092B4001092B3008BE063
:1003100080BF83E080937F0086E080937C0083E849
:1003200080937A0080917A00806480937A00809133
:100330007A0086FDFCCF10927C0083EA80937A00DD
:1003400081E080937B0081E090E00E94980F8F3FD6
:1003500011F08093660010925B01C1E0C0935A01D6
:10036000C0935901109258011092570180E990E012
:100370000E94980F809356018091560188738111D5
:10038000C093560110925301109252018FEF90E0EA
:10039000909351018093500110924C0110924D01A5
:1003A00010924E0110924F0181E080936F0182E420
:1003B0009FE0909355018093540180EB90E00E9460
:1003C000980FC82F81EB90E00E94980FD82FD09300
:1003D0004B01C0934A0185E090E00E94980F809302
:1003E000490189E090E00E94980F809348018CE0D9
:1003F00090E00E94980F8093470184E190E00E9472
:10040000980F809346010EE011E08AE2E82E81E029
:10041000F82E9AE2C92E91E0D92EC0E2D0E0CE01AA
:100420000E94980FB82ECE0101960E94980F9B2D26
:10043000F801819391938F01CE01C0960E94980F8D
:10044000B82ECE01C1960E94980F9B2DF701819383
:1004500091937F012296C016D10609F77894DF9117
:10046000CF911F910F91FF90EF90DF90CF90BF90B1
:1004700008950F920FB60F921F9211248F930FB60B
:10048000F894A89580916000886180936000109234
:1004900060000FBE8F911F900F900FBE0F901895A8
:1004A0003C01EB0110E099249A9484E0C82E96E078
:1004B000A92E23E8B22E38E1D32E49E2E42EE091B2
:1004C0006F01E730E0F7F0E0EC5FFF4E0C94EC0CCE
:1004D000111102C0F3010995C0926F0111E0FE01F4
:1004E0000995EDCF80915B01811103C1F894A09231
:1004F0007C00B0927A0080917A00806480937A00C8
:1005000080917A0086FDFCCF8091780090917900EF
:1005100078948B3AE2E09E070CF0E4C08938F2E070
:100520009F070CF0EDC0873692400CF4E2C0559A5C
:10053000549A3B9A3A9A3D983C98C1CF5598549812
:100540003B9A3A9A3D983C98EFECF7E03197F1F7F7
:1005500000C00000559854983B983A983D983C98B4
:10056000FFEF21EE84E0F15020408040E1F700C031
:100570000000A5CFF89480B7877F80BF80917A0074
:100580008F7780937A0014B817B81AB815B818B8CE
:100590001BB80FB6F894A895D09260000FBEE092F9
:1005A00060008091600080648093600083B7817FE9
:1005B000846083BFF89483B7816083BF7894889503
:1005C00083B78E7F83BF789410925B01529A5A9AB8
:1005D00080917A00806880937A0087E592E00197A5
:1005E000F1F700C0000080B7886180BF559A549A27
:1005F0003B9A3A9A3D9A3C9AEFE1FEE43197F1F743
:1006000000C0000080915B0181115CC05598549836
:100610003B983A983D983C9852CF80916D0181115A
:1006200025C01092B3001092B40010926E0147CF13
:100630004899ECCF559A54983B983A983D983C98F5
:100640008FEC97E00197F1F700C00000559854989F
:100650003B983A983D983C989FEFE1EEF4E091503A
:10066000E040F040E1F700C0000029CF90916D011B
:1006700080916E01981709F422CF80916D018093CB
:100680006E0180916D01813009F441C080916D014E
:100690001092B3009092B400823009F449C0909255
:1006A000B3009092B4008FE295E70197F1F700C094
:1006B000000080914601909147019093B300809390
:1006C000B400FDCE559A549A3B983A983D983C9880
:1006D000FFEF20E782E0F15020408040E1F700C0CA
:1006E000000094CF559854983B9A3A9A3D983C987C
:1006F000E6CE559A549A3B983A983D983C98DFCE6E
:10070000559854983B983A983D9A3C9AD8CE9092F6
:10071000B3001092B4008FE295E70197F1F700C0A3
:100720000000809149018093B3001092B400C7CEBD
:10073000EFE2F5E73197F1F700C000008091480142
:100740001092B3008093B400BACE9C01892B59F06B
:100750008FEC97E00197F1F700C0000021503109BC
:1007600021153105A9F708958093B3006093B40073
:1007700008958FEF8093B3008093B4008FEC97E0DF
:100780000197F1F700C000008FEC97E00197F1F7B7
:1007900000C000008FEC97E00197F1F700C0000067
:1007A0008FEC97E00197F1F700C000008FEC97E025
:1007B0000197F1F700C000008FEC97E00197F1F787
:1007C00000C000008FEC97E00197F1F700C0000037
:1007D0008FEC97E00197F1F700C000008FEC97E0F5
:1007E0000197F1F700C000008FEC97E00197F1F757
:1007F00000C000008FEC97E00197F1F700C0000007
:100800008FEC97E00197F1F700C000008FEC97E0C4
:100810000197F1F700C000008FEC97E00197F1F726
:1008200000C000008FEC97E00197F1F700C00000D6
:10083000089580915B0181111EC0F89487E0809338
:100840007C0083E880937A0080917A0080648093B2
:100850007A0080917A0086FDFCCF8091780090919B
:10086000790010927C0023EA20937A0021E0209303
:100870007B00789408958FEF9FEF089580915B013E
:1008800081111EC0F89488EC80937C0087E88093E7
:100890007A0080917A00806480937A0080917A0057
:1008A00086FDFCCF809178009091790010927C00B9
:1008B00023EA20937A0021E020937B007894089526
:1008C0008FEF9FEF08951F93CF93DF93E0E0F0E069
:1008D00080E016E0D3E8C3EA71E0A1E0B0E060E8B0
:1008E000F89410937C00D0937A0090917A009064F1
:1008F00090937A0090917A0096FDFCCF2091780039
:1009000030917900217090917A00906490937A00F0
:1009100090917A0096FDFCCF40917800509179003B
:1009200010927C00C0937A0070937B0078944170A1
:10093000241303C061506111D3CF222339F09D01EC
:100940000E2E01C0220F0A94EAF7822B3196E8306E
:10095000F10529F6DF91CF911F9108958091000153
:10096000982F990F990F990F982780916C0121E08A
:10097000280F20936C0186958695892792959695E8
:10098000977089278093000108958093000108954E
:1009900080915B01811116C0F89486E080937C0001
:1009A00083E880937A0080917A00806480937A0053
:1009B00080917A0086FDFCCF80917800909179003B
:1009C000789408958FEF9FEF08952F923F924F9262
:1009D0005F926F927F928F929F92AF92BF92CF92CF
:1009E000DF92EF92FF920F931F93CF93DF93CDB7D8
:1009F000DEB728970FB6F894DEBF0FBECDBF7C01DF
:100A0000DC0112960D90BC91A02DB887AF83A4385D
:100A1000E3E0BE070CF40DC1DC010D911C91809147
:100A20000E0190910F01DD24DA948017910708F4EC
:100A30001AC280911001909111018017910708F45A
:100A400052C380911201909113018017910708F40D
:100A50004FC380911401909115018017910708F4FC
:100A60004CC380911601909117018017910708F4EB
:100A700049C380911801909119018017910708F4DA
:100A800046C380911A0190911B018017910708F4C9
:100A900043C380911C0190911D018017910708F4B8
:100AA00044C380911E0190911F018017910708F4A3
:100AB00045C380912001909121018017910708F48E
:100AC00040C280912201909123018017910708F480
:100AD0003EC380912401909125018017910708F46D
:100AE0003FC380912601909127018017910708F458
:100AF0003CC380912801909129018017910708F447
:100B00003DC31AE59FEFD91609F4EAC22D2D30E056
:100B100040E050E029833A834B835C83CA01B901EA
:100B20000E942A0E6B017C01812F90E0A0E0B0E0D2
:100B300089839A83AB83BC83BC01CD010E942A0EBA
:100B40004B015C012F813885032E000C440B550BA3
:100B500029833A834B835C83CA01B9010E942C0E1E
:100B60008B018E839D839B01AC0160E070E081E688
:100B700094E40E94150D9601A70169837A838B8303
:100B80009C8369817A818B819C810E94B80E6B0164
:100B90007C0120E030E04FE254E409831A838E8127
:100BA0008B839D819C8369817A818B819C810E944A
:100BB000150D9401A50169837A838B839C836981D8
:100BC0007A818B819C810E94B80E9B01AC01C98205
:100BD000DA82EB82FC8269817A818B819C810E941E
:100BE000160D20E030E048E453E469837A838B8378
:100BF0009C8369817A818B819C810E94820D20E097
:100C000030E044E052E469837A838B839C8369817A
:100C10007A818B819C810E94160D69837A838B83F4
:100C20009C8369817A818B819C810E94FB0D862F38
:100C30001BC180912A0190912B018A179B0708F410
:100C40000FC100912C0110912D010A171B0708F408
:100C500039C100912E0110912F010A171B0708F4CA
:100C600060C200913001109131010A171B0708F48E
:100C700061C200913201109133010A171B0708F479
:100C80002BC200913401109135010A171B0708F49B
:100C90005AC200913601109137010A171B0708F458
:100CA0005BC200913801109139010A171B0708F443
:100CB00061C200913A0110913B010A171B0708F429
:100CC00062C200913C0110913D010A171B0708F414
:100CD0005EC200913E0110913F010A171B0708F404
:100CE0005AC200914001109141010A171B0708F4F4
:100CF00056C200914201109143010A171B0708F4E4
:100D000052C200914401109145018DE02DE030E088
:100D10000A171B0708F4D9C0412C512C30ED3D8334
:100D200040E44E835CE0C52ED12CF601EE0FFF1F90
:100D3000E65DFE4F80819181D801A81BB90B9D0112
:100D400040E050E029833A834B835C83CA01B901B8
:100D50000E942A0E9B01AC0169837A838B839C835A
:100D600069817A818B819C810E94160D5B016C01E7
:100D70008F819885092E000CAA0BBB0B89839A835F
:100D8000AB83BC83BC01CD010E942C0E3B014C0106
:100D9000980140E050E029833A834B835C83CA0189
:100DA000B9010E942A0E1B018C0192014D815E81C6
:100DB000A982BA82CB82DC8269817A818B819C8113
:100DC0000E94B80E9B01AC0129823A820B831C83DE
:100DD00069817A818B819C810E94150D9B01AC01F8
:100DE00069827A828B829C8269817A818B819C81E3
:100DF0000E94150D20E030E040E251E469837A83DF
:100E00008B839C8369817A818B819C810E94B80E3F
:100E100069837A838B839C8369817A818B819C81AE
:100E20000E94F40D8B01A982BA82CB82DC82698197
:100E30007A818B819C810E94F40D69837A838B83F4
:100E40009C83C80169817A810E94D80CD62E4F817B
:100E500058854D3B52400CF067C081E2860F04C0BC
:100E6000AD3BB240D4F481E228960FB6F894DEBFD1
:100E70000FBECDBFDF91CF911F910F91FF90EF90EB
:100E8000DF90CF90BF90AF909F908F907F906F90AA
:100E90005F904F903F902F900895D7010D911C9136
:100EA00080910E0190910F01D12C8017910708F0CD
:100EB000C0CD812C912CA12CB12CC12CD12CE12C9A
:100EC000F12C40CE81E021E030E06901F1E0CF1A61
:100ED000D108282F30E040E050E029833A834B834B
:100EE0005C83CA01B9010E942A0E20E030E040E094
:100EF0005FE369837A838B839C8369817A818B81A9
:100F00009C810E94B80E20E030E0A90169837A83B9
:100F10008B839C8369817A818B819C810E94160DD1
:100F20002B018D839E8301CFD7010D911C91809160
:100F30000E0190910F018017910708F07ACD10E013
:100F4000E1CD79E0872E89E090E0FC01EE0FFF1FF4
:100F5000E25FFE4FE080F180FC01EE0FFF1FE45FD7
:100F6000FE4F80819181F701E81BF90B9F0140E062
:100F700050E029833A834B835C83CA01B9010E9404
:100F80002A0E9B01AC0169837A838B839C836981E0
:100F90007A818B819C810E94160D962EA72EB82EE9
:100FA000C92EC801110FAA0BBB0B89839A83AB838F
:100FB000BC83BC01CD010E942C0E3B018C0197012A
:100FC00040E050E029833A834B835C83CA01B90136
:100FD0000E942A0E2B017C01882D90E0A0E0B0E059
:100FE00089839A83AB83BC83BC01CD010E942A0E06
:100FF00020E030E040E05FE369837A838B839C8369
:1010000069817A818B819C810E94B80E20E030E05A
:10101000A90169837A838B839C8369817A818B811F
:101020009C810E94160D292D3A2D4B2D5C2D698334
:101030007A838B839C8369817A818B819C810E94D6
:10104000B80E9B01AC0149825A82EB82FC82698115
:101050007A818B819C810E94150D9B01AC01698274
:101060007A820B831C8369817A818B819C810E94A7
:10107000150D20E030E040E251E469837A838B83F0
:101080009C8369817A818B819C810E94B80E6983DF
:101090007A838B839C8369817A818B819C810E9476
:1010A000F40D8B019982AA82BB82CC8269817A81FC
:1010B0008B819C810E94F40D69837A838B839C834E
:1010C000C80169817A810E94D80C162F81E28D0DAA
:1010D0006F3F09F017CDC8CE84E024E030E0F5CEB4
:1010E00081E2810FC1CE8824839481E090E02DCFEE
:1010F00022E0822E82E090E028CF93E0892E83E0E8
:1011000090E023CF84E0882E84E090E01ECFB5E00D
:101110008B2E85E090E019CFA6E08A2E86E090E045
:1011200014CF82E022E030E0D0CEF7E08F2E87E0CF
:1011300090E00BCF83E023E030E0C7CEE8E08E2ED6
:1011400088E090E002CF85E025E030E0BECE6AE0A6
:10115000862E8AE090E0F9CE86E026E030E0B5CE3B
:101160005BE0852E8BE090E0F0CE4CE0842E8CE0AE
:1011700090E0EBCE87E027E030E0A7CE3DE0832E85
:101180008DE090E0E2CE88E028E030E09ECE89E07D
:1011900029E030E09ACE8AE02AE030E096CE8BE07B
:1011A0002BE030E092CE8CE02CE030E08ECE1F922F
:1011B0000F920FB60F9211242F933F934F935F938B
:1011C0006F937F938F939F93AF93BF93EF93FF930F
:1011D0008091520190915301209150013091510121
:1011E000820F931F90935301809352018FEF90E0F1
:1011F00090935101809350018FEF87BD80914C01F6
:1012000090914D01A0914E01B0914F010196A11D09
:10121000B11D80934C0190934D01A0934E01B0936A
:101220004F0180915B0181110FC080915401909119
:10123000550120915201309153018217930720F4F8
:1012400080916F01843089F0FF91EF91BF91AF9150
:101250009F918F917F916F915F914F913F912F91CE
:101260000F900FBE0F901F901895E0910301F09121
:1012700004010995009741F30E944A0C882351F01C
:10128000E0910101F0910201099510925301109231
:101290005201DACF0E94880F9C0199279093510147
:1012A0008093500127BDD0CF80FF11C0559A81FF98
:1012B00011C0549A82FF11C03B9A83FF11C03A9A21
:1012C00084FF11C03D9A85FF11C03C9A089555983E
:1012D00081FDEFCF549882FDEFCF3B9883FDEFCF98
:1012E0003A9884FDEFCF3D9885FDEFCF3C98089567
:1012F0001F921FB61F9211248F939F93109281000B
:10130000109285001092840081E080935A018093AE
:10131000590110925B0110927C0093EA90937A003D
:1013200080937B009F918F911F901FBE1F901895F7
:101330001F920F920FB60F921124CF92DF92EF926D
:10134000FF922F933F934F935F936F937F938F936E
:101350009F93AF93BF93EF93FF93209184003091BD
:10136000850041E040935B0180915A018823B9F1E7
:1013700010928500109284004093810010925701D2
:1013800010925A01809159018823A1F080917A002E
:1013900086FDFCCF809178009091790090935F0159
:1013A00080935E0181E080937C0093EA90937A00C1
:1013B00080937B00FF91EF91BF91AF919F918F91AF
:1013C0007F916F915F914F913F912F91FF90EF909F
:1013D000DF90CF900F900FBE0F901F901895C9010E
:1013E0008758910984379940A0F01092810010929B
:1013F00085001092840040935A0140935901109245
:101400005B0110927C0083EA80937A0040937B001A
:10141000D1CF26583109A4EFB0E00E94F20C8830F9
:1014200008F465C040935A018091590181113CC074
:1014300080915801E82FF0E0E05AFE4F909157015B
:1014400090838F5F809358018C3009F0B3CF109256
:1014500081001092850010928400409359011092EF
:101460005B01E0906A01F0906B0180E691E00E94E0
:10147000920BE816F90609F09DCFE0916901E7FFAC
:1014800047C098E79E0F933030F0539823981092FE
:10149000B4001092B300E058EB3008F08BCFF0E0CE
:1014A000E55FFF4E0C94EC0C80917A0086FDFCCF3A
:1014B000809178009091790090935D0180935C0118
:1014C00010927C0083EA80937A0081E080937B0015
:1014D000909157019923B9F01092810010928500E4
:1014E000109284008093590110925B0163CF21E038
:1014F00030E001C0220F8A95EAF780915701822BD4
:101500008093570157CF109259011092580152CF32
:10151000E0910501F09106016CE571E080E691E053
:10152000099548CF80916001823009F485C008F0A8
:101530006CC0882309F4BEC0809161019091620162
:1015400090934B0180934A0110926D0180916F013D
:10155000863009F42FCF539A239A1092B400109238
:10156000B30086E080936F0125CF80916F018630B4
:1015700099F0539A239A1092B4001092B3005598A0
:1015800054983B983A983D983C9810926D0110926F
:101590006E0186E080936F012091600181E090E010
:1015A00002C0880F991F2A95E2F720914A013091D5
:1015B0004B0182239323892B09F479C081E0809326
:1015C0006D01F8CE82E080936F01F4CE85E08093C8
:1015D0006F01F0CE81E080936F01ECCE10926F012D
:1015E000E9CE80916F01833009F4E4CE80916F01E0
:1015F000843009F4DFCE539A239A1092B4001092EB
:10160000B30083E080936F01D5CE833061F18430E5
:1016100009F09CCF20916D01809166019091650148
:101620002330C1F010926E0123E020936D0190935E
:101630004701809346018ACF90916D0180916301AB
:101640009130F9F010926E0191E090936D018093CA
:1016500049017CCF209146012813E4CF2091470116
:101660009213E0CF73CF90916D018091640192301D
:1016700069F010926E0192E090936D0180934801A1
:1016800065CF909149019813DDCF60CF90914801CB
:101690009813EFCF5BCFE0E0F0E0099580916E000A
:1016A0008D7F80936E0016BCE0E0F0E70995109204
:1016B0006D0180CE80916F01863009F07BCE609104
:1016C0004A0180EB90E00E94A00F60914B0181EBFA
:1016D00090E00E94A00F6091490185E090E00E9497
:1016E000A00F6091480189E090E00E94A00F6091F6
:1016F00047018CE090E00E94A00F6091460184E1D8
:1017000090E00E94A00F539823981092B40010927A
:10171000B30081E080936F0180916001882309F418
:1017200049CE14CFFC0120818FEF9FEF8227082E36
:101730008295807F8025092E982F82958F700826AC
:10174000869598278927880F880F880F8025218103
:101750008227082E8295807F8025092E982F8295DA
:101760008F700826869598278927880F880F880FFD
:10177000802522818227082E8295807F8025092E50
:10178000982F82958F700826869598278927880F2D
:10179000880F880F802523818227082E8295807FDD
:1017A0008025092E982F82958F7008268695982778
:1017B0008927880F880F880F802524818227082E8B
:1017C0008295807F8025092E982F82958F7008261C
:1017D000869598278927880F880F880F802525816F
:1017E0008227082E8295807F8025092E982F82954A
:1017F0008F700826869598278927880F880F880F6D
:10180000802526818227082E8295807F8025092EBB
:10181000982F82958F700826869598278927880F9C
:10182000880F880F802527818227082E8295807F48
:101830008025092E982F82958F70082686959827E7
:101840008927880F880F880F802520858227082EFA
:101850008295807F8025092E982F82958F7008268B
:10186000869598278927880F880F880F80252185DE
:101870008227082E8295807F8025092E982F8295B9
:101880008F700826869598278927880F880F880FDC
:10189000802508950FB6F894A4B1209156012A2B03
:1018A00024B921E030915601203029F0000025B103
:1018B000232B25B904C000000000000000C0000078
:1018C00000000000309525B1232325B92EEA2A9582
:1018D000F1F72BEE30B735FF0AC0A4B930915601AD
:1018E000309525B1232325B90FBE80E0089500006F
:1018F0002A9581F721E030915601203029F000002F
:1019000025B1232B25B904C000000000000000C051
:10191000000000000000309525B1232325B9000008
:1019200024E52A95F1F7FC018CE0619170E0660FE7
:10193000771F616072609AE041E050E09A012623CF
:101940003723232B30915601203029F0000025B198
:10195000232B25B904C000000000000000C00000D7
:1019600000000000309525B1232325B9000021E5B2
:101970002A95F1F7440F551F9A9501F78A95A9F614
:1019800020B7206120BFA4B930915601309525B110
:10199000232325B90FBE81E008950E9456016FE808
:1019A00070E08FE590E00E94500280E090E00895A2
:1019B00097FB072E16F4009407D077FD09D00E94FC
:1019C000010D07FC05D03EF4909581959F4F089539
:1019D000709561957F4F0895EE0FFF1F0590F4916C
:1019E000E02D0994A29FB001B39FC001A39F700D89
:1019F000811D1124911DB29F700D811D1124911D17
:101A00000895AA1BBB1B51E107C0AA1FBB1FA61745
:101A1000B70710F0A61BB70B881F991F5A95A9F797
:101A200080959095BC01CD0108955058BB27AA27F9
:101A30000E942D0D0C947E0E0E94700E38F00E94B4
:101A4000770E20F039F49F3F19F426F40C946D0EB4
:101A50000EF4E095E7FB0C94670EE92F0E948F0EC1
:101A600058F3BA17620773078407950720F079F4D3
:101A7000A6F50C94B10E0EF4E0950B2EBA2FA02D06
:101A80000B01B90190010C01CA01A0011124FF272B
:101A9000591B99F0593F50F4503E68F11A16F04026
:101AA000A22F232F342F4427585FF3CF4695379525
:101AB0002795A795F0405395C9F77EF41F16BA0BEA
:101AC000620B730B840BBAF09150A1F0FF0FBB1F98
:101AD000661F771F881FC2F70EC0BA0F621F731FE1
:101AE000841F48F4879577956795B795F7959E3F3E
:101AF00008F0B0CF9395880F08F09927EE0F9795CF
:101B0000879508950E94960D0C947E0E0E94770E84
:101B100058F00E94700E40F029F45F3F29F00C94B9
:101B2000670E51110C94B20E0C946D0E0E948F0E24
:101B300068F39923B1F3552391F3951B550BBB27FC
:101B4000AA2762177307840738F09F5F5F4F220F41
:101B5000331F441FAA1FA9F335D00E2E3AF0E0E838
:101B600032D091505040E695001CCAF72BD0FE2F82
:101B700029D0660F771F881FBB1F26173707480716
:101B8000AB07B0E809F0BB0B802DBF01FF279358CE
:101B90005F4F3AF09E3F510578F00C94670E0C941D
:101BA000B20E5F3FE4F3983ED4F386957795679540
:101BB000B795F7959F5FC9F7880F911D9695879503
:101BC00097F90895E1E0660F771F881FBB1F621722
:101BD00073078407BA0720F0621B730B840BBA0BE0
:101BE000EE1F88F7E09508950E94FB0D6894B111EF
:101BF0000C94B20E08950E94970E88F09F5798F0AB
:101C0000B92F9927B751B0F0E1F0660F771F881F01
:101C1000991F1AF0BA95C9F714C0B13091F00E941B
:101C2000B10EB1E008950C94B10E672F782F88277C
:101C3000B85F39F0B93FCCF3869577956795B39542
:101C4000D9F73EF490958095709561957F4F8F4FB1
:101C50009F4F0895E89409C097FB3EF490958095B6
:101C6000709561957F4F8F4F9F4F9923A9F0F92F62
:101C700096E9BB279395F695879577956795B795E0
:101C8000F111F8CFFAF4BB0F11F460FF1BC06F5FC6
:101C90007F4F8F4F9F4F16C0882311F096E911C0D8
:101CA000772321F09EE8872F762F05C0662371F0F9
:101CB00096E8862F70E060E02AF09A95660F771F0D
:101CC000881FDAF7880F9695879597F9089597F901
:101CD0009F6780E870E060E008959FEF80EC0895D2
:101CE00000240A94161617061806090608950024FB
:101CF0000A9412161306140605060895092E039475
:101D0000000C11F4882352F0BB0F40F4BF2B11F4E8
:101D100060FF04C06F5F7F4F8F4F9F4F089557FD47
:101D20009058440F551F59F05F3F71F04795880F49
:101D300097FB991F61F09F3F79F0879508951216E0
:101D400013061406551FF2CF4695F1DF08C016168C
:101D500017061806991FF1CF86957105610508943D
:101D60000895E894BB2766277727CB0197F9089554
:101D70000E94CB0E0C947E0E0E94700E38F00E94D2
:101D8000770E20F0952311F00C94670E0C946D0ED5
:101D900011240C94B20E0E948F0E70F3959FC1F324
:101DA000950F50E0551F629FF001729FBB27F00D09
:101DB000B11D639FAA27F00DB11DAA1F649F66275E
:101DC000B00DA11D661F829F2227B00DA11D621FAD
:101DD000739FB00DA11D621F839FA00D611D221F67
:101DE000749F3327A00D611D231F849F600D211D4B
:101DF000822F762F6A2F11249F5750409AF0F1F0CE
:101E000088234AF0EE0FFF1FBB1F661F771F881F36
:101E100091505040A9F79E3F510580F00C94670EF9
:101E20000C94B20E5F3FE4F3983ED4F38695779519
:101E30006795B795F795E7959F5FC1F7FE2B880FDC
:101E4000911D9695879597F90895CF92DF92EF921D
:101E5000FF92CF93DF93CDB7DEB72A970FB6F894F2
:101E6000DEBF0FBECDBF89879A87A985BA852D9120
:101E70003D914D915C9129833A834B835C8382E44D
:101E80009EECACE0BFE1211531054105510549F15A
:101E9000CA01B9012DE133EF41E050E00E94AE0FDD
:101EA00069017A01A7EAB1E49B01AC010E94CD0F60
:101EB00069837A838B839C83ACEEB4EFA701960190
:101EC0000E94DB0F9B01AC0189819A81AB81BC81AF
:101ED000820F931FA41FB51FB7FF03C00197A1096D
:101EE000B048E985FA8580839183A283B3839F7785
:101EF0002A960FB6F894DEBF0FBECDBFDF91CF910B
:101F0000FF90EF90DF90CF9008950E94250F0895E5
:101F100087E091E00E94250F0895A0E0B0E0809353
:101F2000070190930801A0930901B0930A01089555
:101F3000F999FECF92BD81BDF89A992780B5089591
:101F4000262FF999FECF1FBA92BD81BD20BD0FB6D5
:101F5000F894FA9AF99A0FBE01960895052E97FB08
:101F60001EF400940E94C50F57FD07D00E94E00F99
:101F700007FC03D04EF40C94C50F50954095309556
:101F800021953F4F4F4F5F4F0895909580957095E5
:101F900061957F4F8F4F9F4F08950E94F20CA59F30
:101FA000900DB49F900DA49F800D911D1124089554
:101FB000B7FF0C94CD0F0E94CD0F821B930B089599
:101FC000A1E21A2EAA1BBB1BFD010DC0AA1FBB1F3D
:101FD000EE1FFF1FA217B307E407F50720F0A21BAF
:101FE000B30BE40BF50B661F771F881F991F1A941C
:101FF00069F760957095809590959B01AC01BD0146
:10200000CF010895F894FFCFBA029E0272026802CF
:102010006F0218030D034E0BDA09DA094B0BEE0AB7
:0C202000EA0AE60AE20AF10AB50A920A8E
:0C202C00AA550152015101010000000002
:00000001FF
