:107000000C9434380C9451380C9451380C945138F9
:107010000C9451380C9451380C9451380C945138CC
:107020000C9451380C9451380C9451380C94C0394C
:107030000C9451380C9451380C949B390C94513861
:107040000C9451380C9451380C9451380C9451389C
:107050000C9451380C9451380C9451380C94E039FC
:107060000C9451380C94513811241FBECFEFD8E046
:10707000DEBFCDBF11E0A0E0B1E0E4E9F7E702C078
:1070800005900D92A630B107D9F721E0A6E0B1E056
:1070900001C01D92A63CB207E1F70E947B3B0C9415
:1070A000C83B0C940038CF93DF93FC018185813875
:1070B000D9F0823879F0803809F4D4C08091AB01DE
:1070C000811105C081E085BF15BE0C940000DF91E1
:1070D000CF91089580818093AC019091AB01891785
:1070E00089F3DF91CF910895F0932301E09322017A
:1070F0008081C091AA018C1751F18093AA018181EE
:1071000090E022813381DC01AA0FBB1FAC5DBE4F32
:107110002D933C9324813581DC01AA0FBB1FAA5D0E
:10712000BE4F2D933C9326813781880F991FFC0118
:10713000E85DFE4F3183208386E090E09093A901C3
:107140008093A80180E1DF91CF910C949C3920912C
:10715000A8013091A9012A5F3F4F818190E04281CF
:107160005381DC01AA0FBB1FAC5DBE4F4D935C93F6
:1071700044815581DC01AA0FBB1FAA5DBE4F4D9310
:107180005C9346815781880F991FFC01E85DFE4F93
:10719000518340833093A9012093A8012038310501
:1071A00088F2EC2FE695E695E695F0E0EA5FFE4F73
:1071B000808190E02C2F277002C0959587952A95A5
:1071C000E2F780FDBFCFF999FECF80E8C89FE001CC
:1071D000112483E0FE0180935700E89507B600FC78
:1071E000FDCF64EA71E0A4E2B1E0AE014452514047
:1071F00021E0FA01EA0FFB1F8D919D910C01209374
:107200005700E89511246A177B0799F785E0FE017E
:1072100080935700E89507B600FCFDCF81E180938D
:107220005700E8958CE00E949C398091AA01E82FD4
:10723000E695E695E695F0E0EA5FFE4F877021E07F
:1072400030E001C0220F8A95EAF78081822B80838B
:107250008091AB018F5F8093AB019091AC0189135A
:1072600036CF30CF0C940038DF91CF91089581E074
:1072700085BF15BE0C9400000895089580E090E04D
:1072800008950895F89414B817B81AB815B818B82E
:107290001BB8529A5A9A14BC85E085BD8FEF87BD02
:1072A00082E080936E0010928000109281002FE89F
:1072B0003BE0309389002093880080936F005398BF
:1072C000239891EA9093B0008093B1001092B4009B
:1072D0001092B3008BE080BF83E080937F0086E054
:1072E00080937C0083E880937A0080917A008064A8
:1072F00080937A0080917A0086FDFCCF10927C000A
:1073000083EA80937A0081E080937B0081E090E0C3
:107310000E94C03B8F3F11F0809366001092B40131
:1073200081E08093B3018093B2011092B101109279
:10733000B00178940895189580FF11C0559A81FF87
:1073400011C0549A82FF11C03B9A83FF11C03A9A30
:1073500084FF11C03D9A85FF11C03C9A089555984D
:1073600081FDEFCF549882FDEFCF3B9883FDEFCFA7
:107370003A9884FDEFCF3D9885FDEFCF3C98089576
:107380001F921FB61F9211248F939F93109281001A
:10739000109285001092840081E08093B301809365
:1073A000B2011092B40110927C0093EA90937A009B
:1073B00080937B009F918F911F901FBE1F90189507
:1073C0001F920F920FB60F921124CF92DF92EF927D
:1073D000FF922F933F934F935F936F937F938F937E
:1073E0009F93AF93BF93EF93FF93209184003091CD
:1073F000850041E04093B4018091B3018823B9F145
:107400001092850010928400409381001092B00188
:107410001092B3018091B2018823A1F080917A008B
:1074200086FDFCCF80917800909179009093B8010F
:107430008093B70181E080937C0093EA90937A0077
:1074400080937B00FF91EF91BF91AF919F918F91BE
:107450007F916F915F914F913F912F91FF90EF90AE
:10746000DF90CF900F900FBE0F901F901895C9011D
:107470008758910984379940A0F0109281001092AA
:107480008500109284004093B3014093B2011092A2
:10749000B40110927C0083EA80937A0040937B00D1
:1074A000D1CF26583109A4EFB0E00E94B13B88301B
:1074B00008F458C04093B3018091B20181112FC0EC
:1074C0008091B101E82FF0E0E754FE4F9091B001B8
:1074D00090838F5F8093B1018C3009F0B3CF10920D
:1074E000810010928500109284004093B2011092A6
:1074F000B401E090C301F090C40189EB91E00E94D7
:10750000C33AE816F90609F09DCFE0910401F09125
:10751000050165EB71E089EB91E0099593CF8091CE
:107520007A0086FDFCCF809178009091790090934D
:10753000B6018093B50110927C0083EA80937A00B3
:1075400081E080937B009091B0019923B9F0109273
:10755000810010928500109284008093B2011092F5
:10756000B40170CF21E030E001C0220F8A95EAF724
:107570008091B001822B8093B00164CF1092B20150
:107580001092B1015FCFFC0120818FEF9FEF822726
:10759000082E8295807F8025092E982F82958F70E6
:1075A0000826869598278927880F880F880F8025B9
:1075B00021818227082E8295807F8025092E982F91
:1075C00082958F700826869598278927880F880FBF
:1075D000880F802522818227082E8295807F802532
:1075E000092E982F82958F700826869598278927CF
:1075F000880F880F880F802523818227082E829587
:10760000807F8025092E982F82958F700826869579
:1076100098278927880F880F880F80252481822743
:10762000082E8295807F8025092E982F82958F7055
:107630000826869598278927880F880F880F802528
:1076400025818227082E8295807F8025092E982FFC
:1076500082958F700826869598278927880F880F2E
:10766000880F802526818227082E8295807F80259D
:10767000092E982F82958F7008268695982789273E
:10768000880F880F880F802527818227082E8295F2
:10769000807F8025092E982F82958F7008268695E9
:1076A00098278927880F880F880F802520858227B3
:1076B000082E8295807F8025092E982F82958F70C5
:1076C0000826869598278927880F880F880F802598
:1076D00021858227082E8295807F8025092E982F6C
:1076E00082958F700826869598278927880F880F9E
:1076F000880F80250895F89481E085BF82E085BFDA
:10770000E6E0F1E08CE1DF011D928A95E9F78CED6E
:107710008093AC011092AB011092AA011092A901C2
:107720001092A801789483E598E3909305018093E3
:1077300004010E94423980E30E949C398FE097E265
:107740000197F1F700C0000080E00E949C399FEF94
:10775000A9E6B8E19150A040B040E1F700C00000B8
:10776000EACFA29FB001B39FC001A39F700D811DFE
:107770001124911DB29F700D811D1124911D08953A
:10778000F999FECF92BD81BDF89A992780B50895E9
:04779000F894FFCF9B
:0677940041393E393D3988
:040000030000700089
:00000001FF
