:100000000C9434000C9446000C9446000C9446006A
:100010000C9446000C9446000C9446000C94460048
:100020000C9446000C9446000C9446000C94460038
:100030000C9446000C9446000C9446000C94460028
:100040000C9446000C9446000C9448000C94460016
:100050000C9446000C9446000C9446000C94460008
:100060000C9446000C94460011241FBECFEFD8E03C
:10007000DEBFCDBF22E0A0E0B1E001C01D92A03202
:10008000B207E1F70E94F1010C9432040C940000D5
:100090001F920F920FB60F9211240F931F932F935D
:1000A0003F934F935F936F937F938F939F93AF9300
:1000B000BF93CF93DF93EF93FF939091C60060912E
:1000C0009B01E62FF0E0E456FE4F808120919A01DB
:1000D0008227282F29276F5F643818F5C62FD0E0B4
:1000E000362F908320939A0130939B01FE01E456B2
:1000F000FE4F20812535D1F0FF91EF91DF91CF9117
:10010000BF91AF919F918F917F916F915F914F912F
:100110003F912F911F910F910F900FBE0F901F9045
:10012000189530E0C0E0D0E060E0DBCF8913E4CF89
:1001300004E810E00C1B1D0B70E064567E4FA80114
:1001400086E191E00E9429040438110541F0AE01D6
:100150006CE971E0C8018A5E9E4F0E94290481E02B
:10016000809314018091170180931501C5CFFC0184
:1001700020818FEF9FEF8227082E8295807F802538
:10018000092E982F82958F700826869598278927A3
:10019000880F880F880F802521818227082E82955D
:1001A000807F8025092E982F82958F70082686954E
:1001B00098278927880F880F880F8025228182271A
:1001C000082E8295807F8025092E982F82958F702A
:1001D0000826869598278927880F880F880F8025FD
:1001E00023818227082E8295807F8025092E982FD3
:1001F00082958F700826869598278927880F880F03
:10020000880F802524818227082E8295807F802573
:10021000092E982F82958F70082686959827892712
:10022000880F880F880F802525818227082E8295C8
:10023000807F8025092E982F82958F7008268695BD
:1002400098278927880F880F880F80252681822785
:10025000082E8295807F8025092E982F82958F7099
:100260000826869598278927880F880F880F80256C
:1002700027818227082E8295807F8025092E982F3E
:1002800082958F700826869598278927880F880F72
:10029000880F802520858227082E8295807F8025E3
:1002A000092E982F82958F70082686959827892782
:1002B000880F880F880F802521858227082E829538
:1002C000807F8025092E982F82958F70082686952D
:1002D00098278927880F880F880F802508950FB6E3
:1002E000A4B1209113012A2B24B921E030911301EC
:1002F000203029F0000025B1232B25B904C00000CF
:100300000000000000C0000000000000309525B192
:10031000232325B92EEA2A95F1F72BEE30B735FFC6
:100320000AC0A4B930911301309525B1232325B912
:100330000FBE80E0089500002A9581F721E03091FA
:100340001301203029F0000025B1232B25B904C06A
:1003500000000000000000C0000000000000309518
:1003600025B1232325B9000024E52A95F1F7FC01E6
:100370008CE0619170E0660F771F616072609AE0B7
:1003800041E050E09A0126233723232B30911301BB
:10039000203029F0000025B1232B25B904C000002E
:1003A0000000000000C0000000000000309525B1F2
:1003B000232325B9000021E52A95F1F7440F551FA5
:1003C0009A9501F78A95A9F620B7206120BFA4B9B4
:1003D00030911301309525B1232325B90FBE81E05B
:1003E0000895F894219A259A2D98299880B78068C5
:1003F00080BF80E88093610081E0809361008CE0A1
:1004000090E09093C5008093C4008091C0008D7FE0
:100410008093C0008091C20086608093C20080916A
:10042000C10088698093C100789482E080931301B1
:1004300084E0E82E81E0F82EF0920301E0920201C0
:10044000F0920101E0920001F0921101E09210019E
:100450002D9A2FEF81EE94E0215080409040E1F7FB
:1004600000C000002D98EFEFF1EE24E0E150F040E5
:100470002040E1F700C000002D9A8FEF91EEE4E0FC
:1004800081509040E040E1F700C000002D98FFEF60
:1004900021EE84E0F15020408040E1F700C00000F0
:1004A0002D9A9FEFE1EEF4E09150E040F040E1F74B
:1004B00000C000002D982FEF81EE94E02150804085
:1004C0009040E1F700C000002D9AEFEFF1EE24E03C
:1004D000E150F0402040E1F700C000002D988FEF80
:1004E00091EEE4E081509040E040E1F700C0000070
:1004F0002D9AFFEF21EE84E0F15020408040E1F79B
:1005000000C000002D989FEFE1EEF4E09150E04034
:10051000F040E1F700C0000091E8B92E29E0C22EBA
:10052000DD24D394809114018823E1F31092140107
:1005300080911501843009F4ACC008F051C08230BC
:1005400009F4EAC0833009F096C0E0911001F091FF
:100550001101809118018083E0911001F091110147
:10056000809119018183E0911001F0911101809136
:100570001A01828380911B01838380911C018483F3
:1005800080911D01858380911E01868380911F01CA
:1005900087838091200180878091210181878091CC
:1005A0002201828780912301838780911401811128
:1005B000B9CF84E091E00E946F012D9A8FE697E118
:1005C0000197F1F700C000002D98EFE6F7E13197B1
:1005D000F1F700C0000080911401882351F3A2CFED
:1005E000853009F4E6C0863009F09CCFE091100117
:1005F000F0911101809118018083E0911001F09138
:100600001101809119018183E0911001F091110194
:1006100080911A01828380911B01838380911C0148
:10062000848380911D01858380911E018683809142
:100630001F0187838091200180878091210181871C
:1006400084E091E00E94B70090930F0180930E0127
:1006500084E091E00E946F012D9A8FE697E1019767
:10066000F1F700C000002D98EFE6F7E13197F1F7C0
:1006700000C0000057CF813009F054CF80911201A3
:1006800091E0811190E0909312018111E0C02D9AC8
:1006900049CFB0920D01E0910201F09103018091E8
:1006A000180180831086F894C9E1D1E010E020C0E1
:1006B000A0910201B0910301812F869511968C9330
:1006C0001197129686E0FE0101900D928A95E1F74E
:1006D00084E091E00E94B70090930F0180930E0197
:1006E00084E091E00E946F011A5F2696143821F091
:1006F000809114018823E1F278942D9A8FE19EE491
:100700000197F1F700C000002D98EFE1FEE431976A
:10071000F1F700C0000006CFE0911001F091110147
:10072000809118018083E0911001F0911101809176
:1007300019018183E0911001F091110180911A015A
:10074000828380911B01838380911C01848380912B
:100750001D01858380911E01868380911F018783FF
:1007600080912001808780912101818784E091E040
:100770000E94B70090930F0180930E0180911401A5
:100780008111D0CE84E091E00E946F012D9A8FE616
:1007900097E10197F1F700C000002D98EFE6F7E12F
:1007A0003197F1F700C0000080911401882351F3C4
:1007B000B9CEF7012C2D11922A95E9F7D0920D01AF
:1007C000F89408E111E0C0910001D091010188E0A6
:1007D000F801DE0101900D928A95E1F788819981F7
:1007E000892B79F48A819B81892B59F48C819D8195
:1007F000892B39F48E81811104C08F819885892BD2
:10080000B1F084E091E00E94B70090930F018093D3
:100810000E0184E091E00E946F0185E88A95F1F76E
:100820000000085F1F4F91E00839190761F67894BE
:100830002D9AEFE1FEE43197F1F700C000002D980A
:100840008FE19EE40197F1F700C000006BCE2D9878
:1008500069CEFB01DC0102C001900D924150504075
:08086000D8F70895F894FFCFCA
:00000001FF
